S02700004F6E2D64656D616E642054726166666963206C6967687420636F6E74726F6C2E7372656372
S11300000C942A000C94D5000C943C000C943C00F5
S11300100C943C000C943C000C943C000C943C006C
S11300200C943C000C943C000C943C000C943C005C
S11300300C943C000C943C000C943C000C943C004C
S11300400C943C000C943C000C943C000C943C003C
S11300500C943C0011241FBECFE5D8E0DEBFCDBF19
S113006020E0A0E6B0E001C01D92A336B207E1F79C
S11300700E9478010C949B040C94000060E081E4DD
S11300800E94640161E081E40E946B0162E081E40A
S11300900E946B0162E082E40E946401109261009C
S11300A060E070E080EA90E40E943B030895CF93FF
S11300B0CAE060E081E40E946B0161E081E40E9497
S11300C0720162E081E40E946B0160E070E080E014
S11300D09FE30E943B0380916100811108C060E0AE
S11300E082E40E946B0162E082E40E9464018091D8
S11300F06100823041F462E082E40E946B0160E0BE
S113010082E40E946401C150A1F660E082E40E948E
S11301106B0162E082E40E946B01CF91089560E07C
S113012081E40E946B0161E081E40E946B0162E062
S113013081E40E94640160E082E40E94640182E040
S11301408093610060E070E080EA90E40E943B03E9
S11301500895CF9360E081E40E946B0160E082E443
S11301600E946B0161E081E40E946B0161E082E422
S11301700E946B0162E081E40E946B0162E082E410
S11301800E946B01CAE061E081E40E94720161E0B7
S113019082E40E94720160E070E080E09FE30E94CC
S11301A03B03C15081F7CF9108951F920F920FB670
S11301B00F9211242F933F934F935F936F937F93E9
S11301C08F939F93AF93BF93EF93FF93CF93DF935B
S11301D01F92CDB7DEB7AE014F5F5F4F62E084E49C
S11301E00E9457016DEC7CEC8CE49EE30E943B037F
S11301F0AE014F5F5F4F62E084E40E945701898142
S113020081110CC080916100811108C00E94A90075
S11302100E948F000E9457000E943E000F90DF91C1
S1130220CF91FF91EF91BF91AF919F918F917F916A
S11302306F915F914F913F912F910F900FBE0F904F
S11302401F90189585E08093610062E084E40E9429
S1130250500160E081E40E945D0161E081E40E945C
S11302605D0162E081E40E945D0160E082E40E943D
S11302705D0161E082E40E945D0162E082E40E942B
S11302805D010E94300382E08093610008950E9422
S11302903E000E9457000E948F000E945700F7CF33
S11302A0982F862F40E0692F0E947F010895982F90
S11302B0862F692F0E94D0020895982F862F41E03F
S11302C0692F0E947F010895982F862F41E0692F9E
S11302D00E9408020895982F862F40E0692F0E94FB
S11302E008020895982F862F692F0E94910208957D
S11302F00E9422010E94470180E090E00895623448
S113030051F118F4613441F00895633409F442C0A2
S1130310643409F45EC00895413069F44AB321E0BD
S113032030E0B90102C0660F771F8A95E2F7CB016E
S1130330842B8ABB089541116AC04AB321E030E09E
S1130340B90102C0660F771F8A95E2F7CB01809549
S113035084238ABB0895413069F447B321E030E037
S1130360B90102C0660F771F8A95E2F7CB01842B8F
S113037087BB089541114BC047B321E030E0B90178
S113038002C0660F771F8A95E2F7CB01809584231C
S113039087BB0895413069F444B321E030E0B901EA
S11303A002C0660F771F8A95E2F7CB01842B84BBCA
S11303B0089541112CC044B321E030E0B90102C0DA
S11303C0660F771F8A95E2F7CB018095842384BB5F
S11303D00895413069F441B321E030E0B90102C02D
S11303E0660F771F8A95E2F7CB01842B81BB0895B2
S11303F041110DC041B321E030E0B90102C0660FE4
S1130400771F8A95E2F7CB018095842381BB0895F9
S1130410623451F118F4613441F00895633409F4FD
S113042042C0643409F45EC00895413069F44BB3AA
S113043021E030E0B90102C0660F771F8A95E2F728
S1130440CB01842B8BBB089541116AC04BB321E0CF
S113045030E0B90102C0660F771F8A95E2F7CB013D
S1130460809584238BBB0895413069F448B321E01F
S113047030E0B90102C0660F771F8A95E2F7CB011D
S1130480842B88BB089541114BC048B321E030E070
S1130490B90102C0660F771F8A95E2F7CB018095F8
S11304A0842388BB0895413069F445B321E030E0EA
S11304B0B90102C0660F771F8A95E2F7CB01842B3E
S11304C085BB089541112CC045B321E030E0B9014A
S11304D002C0660F771F8A95E2F7CB0180958423CB
S11304E085BB0895413069F442B321E030E0B9019D
S11304F002C0660F771F8A95E2F7CB01842B82BB7B
S1130500089541110DC042B321E030E0B90102C0A9
S1130510660F771F8A95E2F7CB018095842382BB0F
S113052008956234B1F018F4613431F008956334FD
S1130530E9F0643441F108954BB321E030E0B901AE
S113054002C0660F771F8A95E2F7CB0184278BBB25
S1130550089548B321E030E0B90102C0660F771F67
S11305608A95E2F7CB01842788BB089545B321E03F
S113057030E0B90102C0660F771F8A95E2F7CB011C
S1130580842785BB089542B321E030E0B90102C05D
S1130590660F771F8A95E2F7CB01842782BB089503
S11305A06234F9F018F4613439F00895633471F168
S11305B0643409F440C0089569B321E030E0082EA2
S11305C002C0220F331F0A94E2F770E02623372378
S11305D0B90102C0759567958A95E2F7FA016083BF
S11305E0089566B321E030E0082E02C0220F331FC5
S11305F00A94E2F770E026233723B90102C0759507
S113060067958A95E2F7FA016083089563B321E060
S113061030E0082E02C0220F331F0A94E2F770E084
S113062026233723B90102C0759567958A95E2F7A9
S1130630FA016083089560B321E030E0082E02C01F
S1130640220F331F0A94E2F770E026233723B901FF
S113065002C0759567958A95E2F7FA01608308955B
S1130660789485B7816085BF85B7826085BF8BB775
S113067080648BBF0895CF92DF92EF92FF92CF9365
S1130680DF9321E023BF12BE20E030E244E755E4CB
S11306900E94DD036B017C0120E030E0A9010E948F
S11306A0D8031816B4F4C0E0D0E008B600FEFDCFBD
S11306B088B7816088BF2196BE010D2E000C880B7F
S11306C0990B0E947903A70196010E947203882363
S11306D064F381E083BFDF91CF91FF90EF90DF90CF
S11306E0CF9008950E94B40308F481E00895E8943B
S11306F009C097FB3EF490958095709561957F4F66
S11307008F4F9F4F9923A9F0F92F96E9BB27939513
S1130710F695879577956795B795F111F8CFFAF423
S1130720BB0F11F460FF1BC06F5F7F4F8F4F9F4F54
S113073016C0882311F096E911C0772321F09EE8B2
S1130740872F762F05C0662371F096E8862F70E018
S113075060E02AF09A95660F771F881FDAF7880FF2
S11307609695879597F90895990F0008550FAA0B48
S1130770E0E8FEEF16161706E807F907C0F01216B0
S11307801306E407F50798F0621B730B840B950BB3
S113079039F40A2661F0232B242B252B21F4089508
S11307A00A2609F4A140A6958FEF811D811D0895A5
S11307B00E94B40308F48FEF08950E94F0030C9490
S11307C061040E94530438F00E945A0420F09523D7
S11307D011F00C944A040C94500411240C949504C4
S11307E00E94720470F3959FC1F3950F50E0551F5A
S11307F0629FF001729FBB27F00DB11D639FAA2772
S1130800F00DB11DAA1F649F6627B00DA11D661FC0
S1130810829F2227B00DA11D621F739FB00DA11DE1
S1130820621F839FA00D611D221F749F3327A00D9B
S1130830611D231F849F600D211D822F762F6A2F37
S113084011249F5750409AF0F1F088234AF0EE0F9C
S1130850FF1FBB1F661F771F881F91505040A9F7C9
S11308609E3F510580F00C944A040C9495045F3F1C
S1130870E4F3983ED4F3869577956795B795F79505
S1130880E7959F5FC1F7FE2B880F911D969587957D
S113089097F9089597F99F6780E870E060E00895FC
S11308A09FEF80EC089500240A9416161706180684
S11308B00906089500240A94121613061406050660
S11308C00895092E0394000C11F4882352F0BB0FF1
S11308D040F4BF2B11F460FF04C06F5F7F4F8F4F54
S11308E09F4F089557FD9058440F551F59F05F3F8F
S11308F071F04795880F97FB991F61F09F3F79F03E
S113090087950895121613061406551FF2CF4695BF
S1130910F1DF08C0161617061806991FF1CF869541
S11309207105610508940895E894BB276627772725
S10D0930CB0197F90895F894FFCF66
S9030000FC
